{
  "contractName": "VotingSystem",
  "abi": [
    {
      "inputs": [],
      "stateMutability": "nonpayable",
      "type": "constructor"
    },
    {
      "anonymous": false,
      "inputs": [
        {
          "indexed": false,
          "internalType": "uint256",
          "name": "proposalIndex",
          "type": "uint256"
        },
        {
          "indexed": false,
          "internalType": "string",
          "name": "title",
          "type": "string"
        },
        {
          "indexed": false,
          "internalType": "string",
          "name": "description",
          "type": "string"
        }
      ],
      "name": "ProposalCreated",
      "type": "event"
    },
    {
      "anonymous": false,
      "inputs": [
        {
          "indexed": false,
          "internalType": "uint256",
          "name": "proposalIndex",
          "type": "uint256"
        }
      ],
      "name": "ProposalRemoved",
      "type": "event"
    },
    {
      "anonymous": false,
      "inputs": [
        {
          "indexed": false,
          "internalType": "uint256",
          "name": "proposalIndex",
          "type": "uint256"
        },
        {
          "indexed": false,
          "internalType": "address",
          "name": "voter",
          "type": "address"
        }
      ],
      "name": "Voted",
      "type": "event"
    },
    {
      "inputs": [
        {
          "internalType": "uint256",
          "name": "",
          "type": "uint256"
        },
        {
          "internalType": "address",
          "name": "",
          "type": "address"
        }
      ],
      "name": "hasVoted",
      "outputs": [
        {
          "internalType": "bool",
          "name": "",
          "type": "bool"
        }
      ],
      "stateMutability": "view",
      "type": "function",
      "constant": true
    },
    {
      "inputs": [],
      "name": "owner",
      "outputs": [
        {
          "internalType": "address",
          "name": "",
          "type": "address"
        }
      ],
      "stateMutability": "view",
      "type": "function",
      "constant": true
    },
    {
      "inputs": [
        {
          "internalType": "uint256",
          "name": "",
          "type": "uint256"
        }
      ],
      "name": "proposals",
      "outputs": [
        {
          "internalType": "string",
          "name": "title",
          "type": "string"
        },
        {
          "internalType": "string",
          "name": "description",
          "type": "string"
        },
        {
          "internalType": "uint256",
          "name": "voteCount",
          "type": "uint256"
        }
      ],
      "stateMutability": "view",
      "type": "function",
      "constant": true
    },
    {
      "inputs": [
        {
          "internalType": "uint256",
          "name": "",
          "type": "uint256"
        },
        {
          "internalType": "uint256",
          "name": "",
          "type": "uint256"
        }
      ],
      "name": "votersForProposal",
      "outputs": [
        {
          "internalType": "address",
          "name": "",
          "type": "address"
        }
      ],
      "stateMutability": "view",
      "type": "function",
      "constant": true
    },
    {
      "inputs": [
        {
          "internalType": "string",
          "name": "title",
          "type": "string"
        },
        {
          "internalType": "string",
          "name": "description",
          "type": "string"
        }
      ],
      "name": "createProposal",
      "outputs": [],
      "stateMutability": "nonpayable",
      "type": "function"
    },
    {
      "inputs": [
        {
          "internalType": "uint256",
          "name": "proposalIndex",
          "type": "uint256"
        }
      ],
      "name": "removeProposal",
      "outputs": [],
      "stateMutability": "nonpayable",
      "type": "function"
    },
    {
      "inputs": [
        {
          "internalType": "uint256",
          "name": "proposalIndex",
          "type": "uint256"
        }
      ],
      "name": "vote",
      "outputs": [],
      "stateMutability": "nonpayable",
      "type": "function"
    },
    {
      "inputs": [
        {
          "internalType": "uint256",
          "name": "proposalIndex",
          "type": "uint256"
        }
      ],
      "name": "getProposal",
      "outputs": [
        {
          "internalType": "string",
          "name": "title",
          "type": "string"
        },
        {
          "internalType": "string",
          "name": "description",
          "type": "string"
        },
        {
          "internalType": "uint256",
          "name": "voteCount",
          "type": "uint256"
        }
      ],
      "stateMutability": "view",
      "type": "function",
      "constant": true
    },
    {
      "inputs": [],
      "name": "getProposalsCount",
      "outputs": [
        {
          "internalType": "uint256",
          "name": "",
          "type": "uint256"
        }
      ],
      "stateMutability": "view",
      "type": "function",
      "constant": true
    }
  ],
  "bytecode": "0x608060405234801561001057600080fd5b5033600360006101000a81548173ffffffffffffffffffffffffffffffffffffffff021916908373ffffffffffffffffffffffffffffffffffffffff160217905550611a52806100616000396000f3fe608060405234801561001057600080fd5b50600436106100935760003560e01c806365e481e21161006657806365e481e2146101325780638da5cb5b1461014e57806398e527d31461016c578063b93574371461018a578063c7f758a8146101ba57610093565b80630121b93f14610098578063013cf08b146100b457806343859632146100e65780634ce4e6c714610116575b600080fd5b6100b260048036038101906100ad9190610eee565b6101ec565b005b6100ce60048036038101906100c99190610eee565b610426565b6040516100dd93929190610fba565b60405180910390f35b61010060048036038101906100fb919061105d565b610570565b60405161010d91906110b8565b60405180910390f35b610130600480360381019061012b9190610eee565b61059f565b005b61014c60048036038101906101479190611208565b610a33565b005b610156610b92565b604051610163919061128f565b60405180910390f35b610174610bb8565b60405161018191906112aa565b60405180910390f35b6101a4600480360381019061019f91906112c5565b610bc4565b6040516101b1919061128f565b60405180910390f35b6101d460048036038101906101cf9190610eee565b610c12565b6040516101e393929190610fba565b60405180910390f35b806000805490508110610234576040517f08c379a000000000000000000000000000000000000000000000000000000000815260040161022b90611351565b60405180910390fd5b6001600083815260200190815260200160002060003373ffffffffffffffffffffffffffffffffffffffff1673ffffffffffffffffffffffffffffffffffffffff16815260200190815260200160002060009054906101000a900460ff16156102d2576040517f08c379a00000000000000000000000000000000000000000000000000000000081526004016102c9906113e3565b60405180910390fd5b600082815481106102e6576102e5611403565b5b9060005260206000209060030201600201600081548092919061030890611461565b9190505550600180600084815260200190815260200160002060003373ffffffffffffffffffffffffffffffffffffffff1673ffffffffffffffffffffffffffffffffffffffff16815260200190815260200160002060006101000a81548160ff02191690831515021790555060026000838152602001908152602001600020339080600181540180825580915050600190039060005260206000200160009091909190916101000a81548173ffffffffffffffffffffffffffffffffffffffff021916908373ffffffffffffffffffffffffffffffffffffffff1602179055507f030b0f8dcd86a031eddb071f91882edeac8173663ba775713b677b42b51be44b823360405161041a9291906114a9565b60405180910390a15050565b6000818154811061043657600080fd5b906000526020600020906003020160009150905080600001805461045990611501565b80601f016020809104026020016040519081016040528092919081815260200182805461048590611501565b80156104d25780601f106104a7576101008083540402835291602001916104d2565b820191906000526020600020905b8154815290600101906020018083116104b557829003601f168201915b5050505050908060010180546104e790611501565b80601f016020809104026020016040519081016040528092919081815260200182805461051390611501565b80156105605780601f1061053557610100808354040283529160200191610560565b820191906000526020600020905b81548152906001019060200180831161054357829003601f168201915b5050505050908060020154905083565b60016020528160005260406000206020528060005260406000206000915091509054906101000a900460ff1681565b600360009054906101000a900473ffffffffffffffffffffffffffffffffffffffff1673ffffffffffffffffffffffffffffffffffffffff163373ffffffffffffffffffffffffffffffffffffffff161461062f576040517f08c379a0000000000000000000000000000000000000000000000000000000008152600401610626906115a4565b60405180910390fd5b806000805490508110610677576040517f08c379a000000000000000000000000000000000000000000000000000000000815260040161066e90611351565b60405180910390fd5b7fd412ca680e6dcd7bc731a6c8d9ad74bea65b8d0dd85d47d29377d99c53326cf7826040516106a691906112aa565b60405180910390a1600060026000848152602001908152602001600020905060005b8180549050811015610784576001600085815260200190815260200160002060008383815481106106fc576106fb611403565b5b9060005260206000200160009054906101000a900473ffffffffffffffffffffffffffffffffffffffff1673ffffffffffffffffffffffffffffffffffffffff1673ffffffffffffffffffffffffffffffffffffffff16815260200190815260200160002060006101000a81549060ff0219169055808061077c90611461565b9150506106c8565b5060008390505b600160008054905061079d91906115c4565b8110156109da5760006001826107b391906115f8565b815481106107c4576107c3611403565b5b9060005260206000209060030201600082815481106107e6576107e5611403565b5b90600052602060002090600302016000820181600001908161080891906117ee565b506001820181600101908161081d91906117ee565b50600282015481600201559050506002600060018361083c91906115f8565b81526020019081526020016000206002600083815260200190815260200160002090805461086b929190610df5565b5060005b60026000838152602001908152602001600020805490508110156109c65760006002600084815260200190815260200160002082815481106108b4576108b3611403565b5b9060005260206000200160009054906101000a900473ffffffffffffffffffffffffffffffffffffffff169050600160006001856108f291906115f8565b815260200190815260200160002060008273ffffffffffffffffffffffffffffffffffffffff1673ffffffffffffffffffffffffffffffffffffffff16815260200190815260200160002060009054906101000a900460ff166001600085815260200190815260200160002060008373ffffffffffffffffffffffffffffffffffffffff1673ffffffffffffffffffffffffffffffffffffffff16815260200190815260200160002060006101000a81548160ff0219169083151502179055505080806109be90611461565b91505061086f565b5080806109d290611461565b91505061078b565b5060008054806109ed576109ec6118d6565b5b600190038181906000526020600020906003020160008082016000610a129190610e47565b600182016000610a229190610e47565b600282016000905550509055505050565b600360009054906101000a900473ffffffffffffffffffffffffffffffffffffffff1673ffffffffffffffffffffffffffffffffffffffff163373ffffffffffffffffffffffffffffffffffffffff1614610ac3576040517f08c379a0000000000000000000000000000000000000000000000000000000008152600401610aba906115a4565b60405180910390fd5b60006040518060600160405280848152602001838152602001600081525090806001815401808255809150506001900390600052602060002090600302016000909190919091506000820151816000019081610b1f9190611905565b506020820151816001019081610b359190611905565b506040820151816002015550507fab417751734d6a1f646db70d698328fa08bc6c3f8d4b8ef2a69adb1eb051496b6001600080549050610b7591906115c4565b8383604051610b86939291906119d7565b60405180910390a15050565b600360009054906101000a900473ffffffffffffffffffffffffffffffffffffffff1681565b60008080549050905090565b60026020528160005260406000208181548110610be057600080fd5b906000526020600020016000915091509054906101000a900473ffffffffffffffffffffffffffffffffffffffff1681565b6060806000836000805490508110610c5f576040517f08c379a0000000000000000000000000000000000000000000000000000000008152600401610c5690611351565b60405180910390fd5b60008581548110610c7357610c72611403565b5b906000526020600020906003020160000160008681548110610c9857610c97611403565b5b906000526020600020906003020160010160008781548110610cbd57610cbc611403565b5b906000526020600020906003020160020154828054610cdb90611501565b80601f0160208091040260200160405190810160405280929190818152602001828054610d0790611501565b8015610d545780601f10610d2957610100808354040283529160200191610d54565b820191906000526020600020905b815481529060010190602001808311610d3757829003601f168201915b50505050509250818054610d6790611501565b80601f0160208091040260200160405190810160405280929190818152602001828054610d9390611501565b8015610de05780601f10610db557610100808354040283529160200191610de0565b820191906000526020600020905b815481529060010190602001808311610dc357829003601f168201915b50505050509150935093509350509193909250565b828054828255906000526020600020908101928215610e365760005260206000209182015b82811115610e35578254825591600101919060010190610e1a565b5b509050610e439190610e87565b5090565b508054610e5390611501565b6000825580601f10610e655750610e84565b601f016020900490600052602060002090810190610e839190610e87565b5b50565b5b80821115610ea0576000816000905550600101610e88565b5090565b6000604051905090565b600080fd5b600080fd5b6000819050919050565b610ecb81610eb8565b8114610ed657600080fd5b50565b600081359050610ee881610ec2565b92915050565b600060208284031215610f0457610f03610eae565b5b6000610f1284828501610ed9565b91505092915050565b600081519050919050565b600082825260208201905092915050565b60005b83811015610f55578082015181840152602081019050610f3a565b60008484015250505050565b6000601f19601f8301169050919050565b6000610f7d82610f1b565b610f878185610f26565b9350610f97818560208601610f37565b610fa081610f61565b840191505092915050565b610fb481610eb8565b82525050565b60006060820190508181036000830152610fd48186610f72565b90508181036020830152610fe88185610f72565b9050610ff76040830184610fab565b949350505050565b600073ffffffffffffffffffffffffffffffffffffffff82169050919050565b600061102a82610fff565b9050919050565b61103a8161101f565b811461104557600080fd5b50565b60008135905061105781611031565b92915050565b6000806040838503121561107457611073610eae565b5b600061108285828601610ed9565b925050602061109385828601611048565b9150509250929050565b60008115159050919050565b6110b28161109d565b82525050565b60006020820190506110cd60008301846110a9565b92915050565b600080fd5b600080fd5b7f4e487b7100000000000000000000000000000000000000000000000000000000600052604160045260246000fd5b61111582610f61565b810181811067ffffffffffffffff82111715611134576111336110dd565b5b80604052505050565b6000611147610ea4565b9050611153828261110c565b919050565b600067ffffffffffffffff821115611173576111726110dd565b5b61117c82610f61565b9050602081019050919050565b82818337600083830152505050565b60006111ab6111a684611158565b61113d565b9050828152602081018484840111156111c7576111c66110d8565b5b6111d2848285611189565b509392505050565b600082601f8301126111ef576111ee6110d3565b5b81356111ff848260208601611198565b91505092915050565b6000806040838503121561121f5761121e610eae565b5b600083013567ffffffffffffffff81111561123d5761123c610eb3565b5b611249858286016111da565b925050602083013567ffffffffffffffff81111561126a57611269610eb3565b5b611276858286016111da565b9150509250929050565b6112898161101f565b82525050565b60006020820190506112a46000830184611280565b92915050565b60006020820190506112bf6000830184610fab565b92915050565b600080604083850312156112dc576112db610eae565b5b60006112ea85828601610ed9565b92505060206112fb85828601610ed9565b9150509250929050565b7f50726f706f73616c20646f6573206e6f74206578697374000000000000000000600082015250565b600061133b601783610f26565b915061134682611305565b602082019050919050565b6000602082019050818103600083015261136a8161132e565b9050919050565b7f596f75206861766520616c726561647920766f746564206f6e2074686973207060008201527f726f706f73616c00000000000000000000000000000000000000000000000000602082015250565b60006113cd602783610f26565b91506113d882611371565b604082019050919050565b600060208201905081810360008301526113fc816113c0565b9050919050565b7f4e487b7100000000000000000000000000000000000000000000000000000000600052603260045260246000fd5b7f4e487b7100000000000000000000000000000000000000000000000000000000600052601160045260246000fd5b600061146c82610eb8565b91507fffffffffffffffffffffffffffffffffffffffffffffffffffffffffffffffff820361149e5761149d611432565b5b600182019050919050565b60006040820190506114be6000830185610fab565b6114cb6020830184611280565b9392505050565b7f4e487b7100000000000000000000000000000000000000000000000000000000600052602260045260246000fd5b6000600282049050600182168061151957607f821691505b60208210810361152c5761152b6114d2565b5b50919050565b7f4f6e6c792074686520636f6e7472616374206f776e65722063616e2063616c6c60008201527f20746869732066756e6374696f6e000000000000000000000000000000000000602082015250565b600061158e602e83610f26565b915061159982611532565b604082019050919050565b600060208201905081810360008301526115bd81611581565b9050919050565b60006115cf82610eb8565b91506115da83610eb8565b92508282039050818111156115f2576115f1611432565b5b92915050565b600061160382610eb8565b915061160e83610eb8565b925082820190508082111561162657611625611432565b5b92915050565b60008154905061163b81611501565b9050919050565b60008190508160005260206000209050919050565b60006020601f8301049050919050565b600082821b905092915050565b6000600883026116a47fffffffffffffffffffffffffffffffffffffffffffffffffffffffffffffffff82611667565b6116ae8683611667565b95508019841693508086168417925050509392505050565b6000819050919050565b60006116eb6116e66116e184610eb8565b6116c6565b610eb8565b9050919050565b6000819050919050565b611705836116d0565b611719611711826116f2565b848454611674565b825550505050565b600090565b61172e611721565b6117398184846116fc565b505050565b5b8181101561175d57611752600082611726565b60018101905061173f565b5050565b601f8211156117a25761177381611642565b61177c84611657565b8101602085101561178b578190505b61179f61179785611657565b83018261173e565b50505b505050565b600082821c905092915050565b60006117c5600019846008026117a7565b1980831691505092915050565b60006117de83836117b4565b9150826002028217905092915050565b8181036117fc5750506118d4565b6118058261162c565b67ffffffffffffffff81111561181e5761181d6110dd565b5b6118288254611501565b611833828285611761565b6000601f8311600181146118625760008415611850578287015490505b61185a85826117d2565b8655506118cd565b601f19841661187087611642565b965061187b86611642565b60005b828110156118a35784890154825560018201915060018501945060208101905061187e565b868310156118c057848901546118bc601f8916826117b4565b8355505b6001600288020188555050505b5050505050505b565b7f4e487b7100000000000000000000000000000000000000000000000000000000600052603160045260246000fd5b61190e82610f1b565b67ffffffffffffffff811115611927576119266110dd565b5b6119318254611501565b61193c828285611761565b600060209050601f83116001811461196f576000841561195d578287015190505b61196785826117d2565b8655506119cf565b601f19841661197d86611642565b60005b828110156119a557848901518255600182019150602085019450602081019050611980565b868310156119c257848901516119be601f8916826117b4565b8355505b6001600288020188555050505b505050505050565b60006060820190506119ec6000830186610fab565b81810360208301526119fe8185610f72565b90508181036040830152611a128184610f72565b905094935050505056fea2646970667358221220c04582e93abd6718a23db09f3a7107d942e76f8ee43f5eda66d5a30067da50e164736f6c63430008130033",
  "immutableReferences": {},
  "source": "pragma solidity ^0.8.0;\n\ncontract VotingSystem {\n    struct Proposal {\n        string title;\n        string description;\n        uint voteCount;\n    }\n\n    Proposal[] public proposals;\n\n    mapping(uint => mapping(address => bool)) public hasVoted;\n    mapping(uint => address[]) public votersForProposal;\n    address public owner;\n\n    event ProposalCreated(uint proposalIndex, string title, string description);\n    event ProposalRemoved(uint proposalIndex);\n    event Voted(uint proposalIndex, address voter);\n\n    modifier onlyOwner() {\n        require(\n            msg.sender == owner,\n            \"Only the contract owner can call this function\"\n        );\n        _;\n    }\n\n    modifier proposalExists(uint proposalIndex) {\n        require(proposalIndex < proposals.length, \"Proposal does not exist\");\n        _;\n    }\n\n    constructor() {\n        owner = msg.sender;\n    }\n\n    function createProposal(\n        string memory title,\n        string memory description\n    ) public onlyOwner {\n        proposals.push(\n            Proposal({title: title, description: description, voteCount: 0})\n        );\n        emit ProposalCreated(proposals.length - 1, title, description);\n    }\n\n    function removeProposal(\n        uint proposalIndex\n    ) public onlyOwner proposalExists(proposalIndex) {\n        emit ProposalRemoved(proposalIndex);\n\n        // Delete votes for the removed proposal\n        address[] storage voters = votersForProposal[proposalIndex];\n        for (uint i = 0; i < voters.length; i++) {\n            delete hasVoted[proposalIndex][voters[i]];\n        }\n\n        // Shift proposals and their votes\n        for (uint i = proposalIndex; i < proposals.length - 1; i++) {\n            proposals[i] = proposals[i + 1];\n            votersForProposal[i] = votersForProposal[i + 1];\n            for (uint j = 0; j < votersForProposal[i].length; j++) {\n                address voter = votersForProposal[i][j];\n                hasVoted[i][voter] = hasVoted[i + 1][voter];\n            }\n        }\n\n        proposals.pop();\n    }\n\n    function vote(uint proposalIndex) public proposalExists(proposalIndex) {\n        require(\n            !hasVoted[proposalIndex][msg.sender],\n            \"You have already voted on this proposal\"\n        );\n        proposals[proposalIndex].voteCount++;\n        hasVoted[proposalIndex][msg.sender] = true;\n        votersForProposal[proposalIndex].push(msg.sender);\n        emit Voted(proposalIndex, msg.sender);\n    }\n\n    function getProposal(\n        uint proposalIndex\n    )\n        public\n        view\n        proposalExists(proposalIndex)\n        returns (string memory title, string memory description, uint voteCount)\n    {\n        return (\n            proposals[proposalIndex].title,\n            proposals[proposalIndex].description,\n            proposals[proposalIndex].voteCount\n        );\n    }\n\n    function getProposalsCount() public view returns (uint) {\n        return proposals.length;\n    }\n}\n",
  "sourcePath": "/Users/zacharyraicik/Documents/personal/Decentralized-Voting-DApp/build/contracts/VotingSystem.sol",
  "compiler": {
    "name": "solc",
    "version": "0.8.19+commit.7dd6d404.Emscripten.clang"
  },
  "schemaVersion": "3.4.13",
  "updatedAt": "2023-05-22T02:19:24.745Z",
  "networkType": "ethereum",
  "devdoc": {
    "kind": "dev",
    "methods": {},
    "version": 1
  },
  "userdoc": {
    "kind": "user",
    "methods": {},
    "version": 1
  }
}