{
  "contractName": "VotingSystem",
  "abi": [
    {
      "inputs": [],
      "stateMutability": "nonpayable",
      "type": "constructor"
    },
    {
      "anonymous": false,
      "inputs": [
        {
          "indexed": false,
          "internalType": "uint256",
          "name": "proposalIndex",
          "type": "uint256"
        },
        {
          "indexed": false,
          "internalType": "string",
          "name": "title",
          "type": "string"
        },
        {
          "indexed": false,
          "internalType": "string",
          "name": "description",
          "type": "string"
        }
      ],
      "name": "ProposalCreated",
      "type": "event"
    },
    {
      "anonymous": false,
      "inputs": [
        {
          "indexed": false,
          "internalType": "uint256",
          "name": "proposalIndex",
          "type": "uint256"
        },
        {
          "indexed": false,
          "internalType": "address",
          "name": "voter",
          "type": "address"
        }
      ],
      "name": "Voted",
      "type": "event"
    },
    {
      "inputs": [
        {
          "internalType": "uint256",
          "name": "",
          "type": "uint256"
        },
        {
          "internalType": "address",
          "name": "",
          "type": "address"
        }
      ],
      "name": "hasVoted",
      "outputs": [
        {
          "internalType": "bool",
          "name": "",
          "type": "bool"
        }
      ],
      "stateMutability": "view",
      "type": "function",
      "constant": true
    },
    {
      "inputs": [],
      "name": "owner",
      "outputs": [
        {
          "internalType": "address",
          "name": "",
          "type": "address"
        }
      ],
      "stateMutability": "view",
      "type": "function",
      "constant": true
    },
    {
      "inputs": [
        {
          "internalType": "uint256",
          "name": "",
          "type": "uint256"
        }
      ],
      "name": "proposals",
      "outputs": [
        {
          "internalType": "string",
          "name": "title",
          "type": "string"
        },
        {
          "internalType": "string",
          "name": "description",
          "type": "string"
        },
        {
          "internalType": "uint256",
          "name": "voteCount",
          "type": "uint256"
        }
      ],
      "stateMutability": "view",
      "type": "function",
      "constant": true
    },
    {
      "inputs": [
        {
          "internalType": "string",
          "name": "title",
          "type": "string"
        },
        {
          "internalType": "string",
          "name": "description",
          "type": "string"
        }
      ],
      "name": "createProposal",
      "outputs": [],
      "stateMutability": "nonpayable",
      "type": "function"
    },
    {
      "inputs": [
        {
          "internalType": "uint256",
          "name": "proposalIndex",
          "type": "uint256"
        }
      ],
      "name": "vote",
      "outputs": [],
      "stateMutability": "nonpayable",
      "type": "function"
    },
    {
      "inputs": [
        {
          "internalType": "uint256",
          "name": "proposalIndex",
          "type": "uint256"
        }
      ],
      "name": "getProposal",
      "outputs": [
        {
          "internalType": "string",
          "name": "title",
          "type": "string"
        },
        {
          "internalType": "string",
          "name": "description",
          "type": "string"
        },
        {
          "internalType": "uint256",
          "name": "voteCount",
          "type": "uint256"
        }
      ],
      "stateMutability": "view",
      "type": "function",
      "constant": true
    },
    {
      "inputs": [],
      "name": "getProposalsCount",
      "outputs": [
        {
          "internalType": "uint256",
          "name": "",
          "type": "uint256"
        }
      ],
      "stateMutability": "view",
      "type": "function",
      "constant": true
    }
  ],
  "bytecode": "0x608060405234801561001057600080fd5b5033600260006101000a81548173ffffffffffffffffffffffffffffffffffffffff021916908373ffffffffffffffffffffffffffffffffffffffff16021790555061124a806100616000396000f3fe608060405234801561001057600080fd5b506004361061007d5760003560e01c806365e481e21161005b57806365e481e2146101005780638da5cb5b1461011c57806398e527d31461013a578063c7f758a8146101585761007d565b80630121b93f14610082578063013cf08b1461009e57806343859632146100d0575b600080fd5b61009c60048036038101906100979190610887565b61018a565b005b6100b860048036038101906100b39190610887565b610350565b6040516100c793929190610953565b60405180910390f35b6100ea60048036038101906100e591906109f6565b61049a565b6040516100f79190610a51565b60405180910390f35b61011a60048036038101906101159190610ba1565b6104c9565b005b610124610628565b6040516101319190610c28565b60405180910390f35b61014261064e565b60405161014f9190610c43565b60405180910390f35b610172600480360381019061016d9190610887565b61065a565b60405161018193929190610953565b60405180910390f35b8060008054905081106101d2576040517f08c379a00000000000000000000000000000000000000000000000000000000081526004016101c990610caa565b60405180910390fd5b6001600083815260200190815260200160002060003373ffffffffffffffffffffffffffffffffffffffff1673ffffffffffffffffffffffffffffffffffffffff16815260200190815260200160002060009054906101000a900460ff1615610270576040517f08c379a000000000000000000000000000000000000000000000000000000000815260040161026790610d3c565b60405180910390fd5b6000828154811061028457610283610d5c565b5b906000526020600020906003020160020160008154809291906102a690610dba565b9190505550600180600084815260200190815260200160002060003373ffffffffffffffffffffffffffffffffffffffff1673ffffffffffffffffffffffffffffffffffffffff16815260200190815260200160002060006101000a81548160ff0219169083151502179055507f030b0f8dcd86a031eddb071f91882edeac8173663ba775713b677b42b51be44b8233604051610344929190610e02565b60405180910390a15050565b6000818154811061036057600080fd5b906000526020600020906003020160009150905080600001805461038390610e5a565b80601f01602080910402602001604051908101604052809291908181526020018280546103af90610e5a565b80156103fc5780601f106103d1576101008083540402835291602001916103fc565b820191906000526020600020905b8154815290600101906020018083116103df57829003601f168201915b50505050509080600101805461041190610e5a565b80601f016020809104026020016040519081016040528092919081815260200182805461043d90610e5a565b801561048a5780601f1061045f5761010080835404028352916020019161048a565b820191906000526020600020905b81548152906001019060200180831161046d57829003601f168201915b5050505050908060020154905083565b60016020528160005260406000206020528060005260406000206000915091509054906101000a900460ff1681565b600260009054906101000a900473ffffffffffffffffffffffffffffffffffffffff1673ffffffffffffffffffffffffffffffffffffffff163373ffffffffffffffffffffffffffffffffffffffff1614610559576040517f08c379a000000000000000000000000000000000000000000000000000000000815260040161055090610efd565b60405180910390fd5b600060405180606001604052808481526020018381526020016000815250908060018154018082558091505060019003906000526020600020906003020160009091909190915060008201518160000190816105b591906110c9565b5060208201518160010190816105cb91906110c9565b506040820151816002015550507fab417751734d6a1f646db70d698328fa08bc6c3f8d4b8ef2a69adb1eb051496b600160008054905061060b919061119b565b838360405161061c939291906111cf565b60405180910390a15050565b600260009054906101000a900473ffffffffffffffffffffffffffffffffffffffff1681565b60008080549050905090565b60608060008360008054905081106106a7576040517f08c379a000000000000000000000000000000000000000000000000000000000815260040161069e90610caa565b60405180910390fd5b600085815481106106bb576106ba610d5c565b5b9060005260206000209060030201600001600086815481106106e0576106df610d5c565b5b90600052602060002090600302016001016000878154811061070557610704610d5c565b5b90600052602060002090600302016002015482805461072390610e5a565b80601f016020809104026020016040519081016040528092919081815260200182805461074f90610e5a565b801561079c5780601f106107715761010080835404028352916020019161079c565b820191906000526020600020905b81548152906001019060200180831161077f57829003601f168201915b505050505092508180546107af90610e5a565b80601f01602080910402602001604051908101604052809291908181526020018280546107db90610e5a565b80156108285780601f106107fd57610100808354040283529160200191610828565b820191906000526020600020905b81548152906001019060200180831161080b57829003601f168201915b50505050509150935093509350509193909250565b6000604051905090565b600080fd5b600080fd5b6000819050919050565b61086481610851565b811461086f57600080fd5b50565b6000813590506108818161085b565b92915050565b60006020828403121561089d5761089c610847565b5b60006108ab84828501610872565b91505092915050565b600081519050919050565b600082825260208201905092915050565b60005b838110156108ee5780820151818401526020810190506108d3565b60008484015250505050565b6000601f19601f8301169050919050565b6000610916826108b4565b61092081856108bf565b93506109308185602086016108d0565b610939816108fa565b840191505092915050565b61094d81610851565b82525050565b6000606082019050818103600083015261096d818661090b565b90508181036020830152610981818561090b565b90506109906040830184610944565b949350505050565b600073ffffffffffffffffffffffffffffffffffffffff82169050919050565b60006109c382610998565b9050919050565b6109d3816109b8565b81146109de57600080fd5b50565b6000813590506109f0816109ca565b92915050565b60008060408385031215610a0d57610a0c610847565b5b6000610a1b85828601610872565b9250506020610a2c858286016109e1565b9150509250929050565b60008115159050919050565b610a4b81610a36565b82525050565b6000602082019050610a666000830184610a42565b92915050565b600080fd5b600080fd5b7f4e487b7100000000000000000000000000000000000000000000000000000000600052604160045260246000fd5b610aae826108fa565b810181811067ffffffffffffffff82111715610acd57610acc610a76565b5b80604052505050565b6000610ae061083d565b9050610aec8282610aa5565b919050565b600067ffffffffffffffff821115610b0c57610b0b610a76565b5b610b15826108fa565b9050602081019050919050565b82818337600083830152505050565b6000610b44610b3f84610af1565b610ad6565b905082815260208101848484011115610b6057610b5f610a71565b5b610b6b848285610b22565b509392505050565b600082601f830112610b8857610b87610a6c565b5b8135610b98848260208601610b31565b91505092915050565b60008060408385031215610bb857610bb7610847565b5b600083013567ffffffffffffffff811115610bd657610bd561084c565b5b610be285828601610b73565b925050602083013567ffffffffffffffff811115610c0357610c0261084c565b5b610c0f85828601610b73565b9150509250929050565b610c22816109b8565b82525050565b6000602082019050610c3d6000830184610c19565b92915050565b6000602082019050610c586000830184610944565b92915050565b7f50726f706f73616c20646f6573206e6f74206578697374000000000000000000600082015250565b6000610c946017836108bf565b9150610c9f82610c5e565b602082019050919050565b60006020820190508181036000830152610cc381610c87565b9050919050565b7f596f75206861766520616c726561647920766f746564206f6e2074686973207060008201527f726f706f73616c00000000000000000000000000000000000000000000000000602082015250565b6000610d266027836108bf565b9150610d3182610cca565b604082019050919050565b60006020820190508181036000830152610d5581610d19565b9050919050565b7f4e487b7100000000000000000000000000000000000000000000000000000000600052603260045260246000fd5b7f4e487b7100000000000000000000000000000000000000000000000000000000600052601160045260246000fd5b6000610dc582610851565b91507fffffffffffffffffffffffffffffffffffffffffffffffffffffffffffffffff8203610df757610df6610d8b565b5b600182019050919050565b6000604082019050610e176000830185610944565b610e246020830184610c19565b9392505050565b7f4e487b7100000000000000000000000000000000000000000000000000000000600052602260045260246000fd5b60006002820490506001821680610e7257607f821691505b602082108103610e8557610e84610e2b565b5b50919050565b7f4f6e6c792074686520636f6e7472616374206f776e65722063616e2063616c6c60008201527f20746869732066756e6374696f6e000000000000000000000000000000000000602082015250565b6000610ee7602e836108bf565b9150610ef282610e8b565b604082019050919050565b60006020820190508181036000830152610f1681610eda565b9050919050565b60008190508160005260206000209050919050565b60006020601f8301049050919050565b600082821b905092915050565b600060088302610f7f7fffffffffffffffffffffffffffffffffffffffffffffffffffffffffffffffff82610f42565b610f898683610f42565b95508019841693508086168417925050509392505050565b6000819050919050565b6000610fc6610fc1610fbc84610851565b610fa1565b610851565b9050919050565b6000819050919050565b610fe083610fab565b610ff4610fec82610fcd565b848454610f4f565b825550505050565b600090565b611009610ffc565b611014818484610fd7565b505050565b5b818110156110385761102d600082611001565b60018101905061101a565b5050565b601f82111561107d5761104e81610f1d565b61105784610f32565b81016020851015611066578190505b61107a61107285610f32565b830182611019565b50505b505050565b600082821c905092915050565b60006110a060001984600802611082565b1980831691505092915050565b60006110b9838361108f565b9150826002028217905092915050565b6110d2826108b4565b67ffffffffffffffff8111156110eb576110ea610a76565b5b6110f58254610e5a565b61110082828561103c565b600060209050601f8311600181146111335760008415611121578287015190505b61112b85826110ad565b865550611193565b601f19841661114186610f1d565b60005b8281101561116957848901518255600182019150602085019450602081019050611144565b868310156111865784890151611182601f89168261108f565b8355505b6001600288020188555050505b505050505050565b60006111a682610851565b91506111b183610851565b92508282039050818111156111c9576111c8610d8b565b5b92915050565b60006060820190506111e46000830186610944565b81810360208301526111f6818561090b565b9050818103604083015261120a818461090b565b905094935050505056fea264697066735822122094fc69200c7064c671759e04fe9b25b31230efac964900f60ccb032f0ee1193464736f6c63430008130033",
  "immutableReferences": {},
  "source": "pragma solidity ^0.8.0;\n\ncontract VotingSystem {\n    struct Proposal {\n        string title;\n        string description;\n        uint voteCount;\n    }\n\n    Proposal[] public proposals;\n\n    mapping(uint => mapping(address => bool)) public hasVoted;\n    address public owner;\n\n    event ProposalCreated(uint proposalIndex, string title, string description);\n    event Voted(uint proposalIndex, address voter);\n\n    modifier onlyOwner() {\n        require(\n            msg.sender == owner,\n            \"Only the contract owner can call this function\"\n        );\n        _;\n    }\n\n    modifier proposalExists(uint proposalIndex) {\n        require(proposalIndex < proposals.length, \"Proposal does not exist\");\n        _;\n    }\n\n    constructor() {\n        owner = msg.sender;\n    }\n\n    function createProposal(\n        string memory title,\n        string memory description\n    ) public onlyOwner {\n        proposals.push(\n            Proposal({title: title, description: description, voteCount: 0})\n        );\n        emit ProposalCreated(proposals.length - 1, title, description);\n    }\n\n    function vote(uint proposalIndex) public proposalExists(proposalIndex) {\n        require(\n            !hasVoted[proposalIndex][msg.sender],\n            \"You have already voted on this proposal\"\n        );\n        proposals[proposalIndex].voteCount++;\n        hasVoted[proposalIndex][msg.sender] = true;\n        emit Voted(proposalIndex, msg.sender);\n    }\n\n    function getProposal(\n        uint proposalIndex\n    )\n        public\n        view\n        proposalExists(proposalIndex)\n        returns (string memory title, string memory description, uint voteCount)\n    {\n        return (\n            proposals[proposalIndex].title,\n            proposals[proposalIndex].description,\n            proposals[proposalIndex].voteCount\n        );\n    }\n\n    function getProposalsCount() public view returns (uint) {\n        return proposals.length;\n    }\n}\n",
  "sourcePath": "/Users/zacharyraicik/Documents/personal/Decentralized-Voting-DApp/build/contracts/VotingSystem.sol",
  "compiler": {
    "name": "solc",
    "version": "0.8.19+commit.7dd6d404.Emscripten.clang"
  },
  "schemaVersion": "3.4.13",
  "updatedAt": "2023-05-19T18:55:57.207Z",
  "networkType": "ethereum",
  "devdoc": {
    "kind": "dev",
    "methods": {},
    "version": 1
  },
  "userdoc": {
    "kind": "user",
    "methods": {},
    "version": 1
  }
}