{
  "contractName": "VotingSystem",
  "abi": [
    {
      "inputs": [],
      "stateMutability": "nonpayable",
      "type": "constructor"
    },
    {
      "anonymous": false,
      "inputs": [
        {
          "indexed": false,
          "internalType": "uint256",
          "name": "proposalIndex",
          "type": "uint256"
        },
        {
          "indexed": false,
          "internalType": "string",
          "name": "title",
          "type": "string"
        },
        {
          "indexed": false,
          "internalType": "string",
          "name": "description",
          "type": "string"
        }
      ],
      "name": "ProposalCreated",
      "type": "event"
    },
    {
      "anonymous": false,
      "inputs": [
        {
          "indexed": false,
          "internalType": "uint256",
          "name": "proposalIndex",
          "type": "uint256"
        }
      ],
      "name": "ProposalRemoved",
      "type": "event"
    },
    {
      "anonymous": false,
      "inputs": [
        {
          "indexed": false,
          "internalType": "uint256",
          "name": "proposalIndex",
          "type": "uint256"
        },
        {
          "indexed": false,
          "internalType": "address",
          "name": "voter",
          "type": "address"
        }
      ],
      "name": "Voted",
      "type": "event"
    },
    {
      "inputs": [
        {
          "internalType": "uint256",
          "name": "",
          "type": "uint256"
        },
        {
          "internalType": "address",
          "name": "",
          "type": "address"
        }
      ],
      "name": "hasVoted",
      "outputs": [
        {
          "internalType": "bool",
          "name": "",
          "type": "bool"
        }
      ],
      "stateMutability": "view",
      "type": "function"
    },
    {
      "inputs": [],
      "name": "owner",
      "outputs": [
        {
          "internalType": "address",
          "name": "",
          "type": "address"
        }
      ],
      "stateMutability": "view",
      "type": "function"
    },
    {
      "inputs": [
        {
          "internalType": "uint256",
          "name": "",
          "type": "uint256"
        }
      ],
      "name": "proposals",
      "outputs": [
        {
          "internalType": "string",
          "name": "title",
          "type": "string"
        },
        {
          "internalType": "string",
          "name": "description",
          "type": "string"
        },
        {
          "internalType": "uint256",
          "name": "voteCount",
          "type": "uint256"
        }
      ],
      "stateMutability": "view",
      "type": "function"
    },
    {
      "inputs": [
        {
          "internalType": "string",
          "name": "title",
          "type": "string"
        },
        {
          "internalType": "string",
          "name": "description",
          "type": "string"
        }
      ],
      "name": "createProposal",
      "outputs": [],
      "stateMutability": "nonpayable",
      "type": "function"
    },
    {
      "inputs": [
        {
          "internalType": "uint256",
          "name": "proposalIndex",
          "type": "uint256"
        }
      ],
      "name": "removeProposal",
      "outputs": [],
      "stateMutability": "nonpayable",
      "type": "function"
    },
    {
      "inputs": [
        {
          "internalType": "uint256",
          "name": "proposalIndex",
          "type": "uint256"
        }
      ],
      "name": "vote",
      "outputs": [],
      "stateMutability": "nonpayable",
      "type": "function"
    },
    {
      "inputs": [
        {
          "internalType": "uint256",
          "name": "proposalIndex",
          "type": "uint256"
        }
      ],
      "name": "getProposal",
      "outputs": [
        {
          "internalType": "string",
          "name": "title",
          "type": "string"
        },
        {
          "internalType": "string",
          "name": "description",
          "type": "string"
        },
        {
          "internalType": "uint256",
          "name": "voteCount",
          "type": "uint256"
        }
      ],
      "stateMutability": "view",
      "type": "function"
    },
    {
      "inputs": [],
      "name": "getProposalsCount",
      "outputs": [
        {
          "internalType": "uint256",
          "name": "",
          "type": "uint256"
        }
      ],
      "stateMutability": "view",
      "type": "function"
    }
  ],
  "bytecode": "0x608060405234801561001057600080fd5b5033600260006101000a81548173ffffffffffffffffffffffffffffffffffffffff021916908373ffffffffffffffffffffffffffffffffffffffff16021790555061169c806100616000396000f3fe608060405234801561001057600080fd5b50600436106100885760003560e01c806365e481e21161005b57806365e481e2146101275780638da5cb5b1461014357806398e527d314610161578063c7f758a81461017f57610088565b80630121b93f1461008d578063013cf08b146100a957806343859632146100db5780634ce4e6c71461010b575b600080fd5b6100a760048036038101906100a29190610b78565b6101b1565b005b6100c360048036038101906100be9190610b78565b610377565b6040516100d293929190610c44565b60405180910390f35b6100f560048036038101906100f09190610ce7565b6104c1565b6040516101029190610d42565b60405180910390f35b61012560048036038101906101209190610b78565b6104f0565b005b610141600480360381019061013c9190610e92565b61075d565b005b61014b6108bc565b6040516101589190610f19565b60405180910390f35b6101696108e2565b6040516101769190610f34565b60405180910390f35b61019960048036038101906101949190610b78565b6108ee565b6040516101a893929190610c44565b60405180910390f35b8060008054905081106101f9576040517f08c379a00000000000000000000000000000000000000000000000000000000081526004016101f090610f9b565b60405180910390fd5b6001600083815260200190815260200160002060003373ffffffffffffffffffffffffffffffffffffffff1673ffffffffffffffffffffffffffffffffffffffff16815260200190815260200160002060009054906101000a900460ff1615610297576040517f08c379a000000000000000000000000000000000000000000000000000000000815260040161028e9061102d565b60405180910390fd5b600082815481106102ab576102aa61104d565b5b906000526020600020906003020160020160008154809291906102cd906110ab565b9190505550600180600084815260200190815260200160002060003373ffffffffffffffffffffffffffffffffffffffff1673ffffffffffffffffffffffffffffffffffffffff16815260200190815260200160002060006101000a81548160ff0219169083151502179055507f030b0f8dcd86a031eddb071f91882edeac8173663ba775713b677b42b51be44b823360405161036b9291906110f3565b60405180910390a15050565b6000818154811061038757600080fd5b90600052602060002090600302016000915090508060000180546103aa9061114b565b80601f01602080910402602001604051908101604052809291908181526020018280546103d69061114b565b80156104235780601f106103f857610100808354040283529160200191610423565b820191906000526020600020905b81548152906001019060200180831161040657829003601f168201915b5050505050908060010180546104389061114b565b80601f01602080910402602001604051908101604052809291908181526020018280546104649061114b565b80156104b15780601f10610486576101008083540402835291602001916104b1565b820191906000526020600020905b81548152906001019060200180831161049457829003601f168201915b5050505050908060020154905083565b60016020528160005260406000206020528060005260406000206000915091509054906101000a900460ff1681565b600260009054906101000a900473ffffffffffffffffffffffffffffffffffffffff1673ffffffffffffffffffffffffffffffffffffffff163373ffffffffffffffffffffffffffffffffffffffff1614610580576040517f08c379a0000000000000000000000000000000000000000000000000000000008152600401610577906111ee565b60405180910390fd5b8060008054905081106105c8576040517f08c379a00000000000000000000000000000000000000000000000000000000081526004016105bf90610f9b565b60405180910390fd5b7fd412ca680e6dcd7bc731a6c8d9ad74bea65b8d0dd85d47d29377d99c53326cf7826040516105f79190610f34565b60405180910390a1600082815481106106135761061261104d565b5b9060005260206000209060030201600080820160006106329190610ad1565b6001820160006106429190610ad1565b6002820160009055505060008290505b6001600080549050610664919061120e565b81101561070557600060018261067a9190611242565b8154811061068b5761068a61104d565b5b9060005260206000209060030201600082815481106106ad576106ac61104d565b5b9060005260206000209060030201600082018160000190816106cf9190611438565b50600182018160010190816106e49190611438565b506002820154816002015590505080806106fd906110ab565b915050610652565b50600080548061071857610717611520565b5b60019003818190600052602060002090600302016000808201600061073d9190610ad1565b60018201600061074d9190610ad1565b6002820160009055505090555050565b600260009054906101000a900473ffffffffffffffffffffffffffffffffffffffff1673ffffffffffffffffffffffffffffffffffffffff163373ffffffffffffffffffffffffffffffffffffffff16146107ed576040517f08c379a00000000000000000000000000000000000000000000000000000000081526004016107e4906111ee565b60405180910390fd5b60006040518060600160405280848152602001838152602001600081525090806001815401808255809150506001900390600052602060002090600302016000909190919091506000820151816000019081610849919061154f565b50602082015181600101908161085f919061154f565b506040820151816002015550507fab417751734d6a1f646db70d698328fa08bc6c3f8d4b8ef2a69adb1eb051496b600160008054905061089f919061120e565b83836040516108b093929190611621565b60405180910390a15050565b600260009054906101000a900473ffffffffffffffffffffffffffffffffffffffff1681565b60008080549050905090565b606080600083600080549050811061093b576040517f08c379a000000000000000000000000000000000000000000000000000000000815260040161093290610f9b565b60405180910390fd5b6000858154811061094f5761094e61104d565b5b9060005260206000209060030201600001600086815481106109745761097361104d565b5b9060005260206000209060030201600101600087815481106109995761099861104d565b5b9060005260206000209060030201600201548280546109b79061114b565b80601f01602080910402602001604051908101604052809291908181526020018280546109e39061114b565b8015610a305780601f10610a0557610100808354040283529160200191610a30565b820191906000526020600020905b815481529060010190602001808311610a1357829003601f168201915b50505050509250818054610a439061114b565b80601f0160208091040260200160405190810160405280929190818152602001828054610a6f9061114b565b8015610abc5780601f10610a9157610100808354040283529160200191610abc565b820191906000526020600020905b815481529060010190602001808311610a9f57829003601f168201915b50505050509150935093509350509193909250565b508054610add9061114b565b6000825580601f10610aef5750610b0e565b601f016020900490600052602060002090810190610b0d9190610b11565b5b50565b5b80821115610b2a576000816000905550600101610b12565b5090565b6000604051905090565b600080fd5b600080fd5b6000819050919050565b610b5581610b42565b8114610b6057600080fd5b50565b600081359050610b7281610b4c565b92915050565b600060208284031215610b8e57610b8d610b38565b5b6000610b9c84828501610b63565b91505092915050565b600081519050919050565b600082825260208201905092915050565b60005b83811015610bdf578082015181840152602081019050610bc4565b60008484015250505050565b6000601f19601f8301169050919050565b6000610c0782610ba5565b610c118185610bb0565b9350610c21818560208601610bc1565b610c2a81610beb565b840191505092915050565b610c3e81610b42565b82525050565b60006060820190508181036000830152610c5e8186610bfc565b90508181036020830152610c728185610bfc565b9050610c816040830184610c35565b949350505050565b600073ffffffffffffffffffffffffffffffffffffffff82169050919050565b6000610cb482610c89565b9050919050565b610cc481610ca9565b8114610ccf57600080fd5b50565b600081359050610ce181610cbb565b92915050565b60008060408385031215610cfe57610cfd610b38565b5b6000610d0c85828601610b63565b9250506020610d1d85828601610cd2565b9150509250929050565b60008115159050919050565b610d3c81610d27565b82525050565b6000602082019050610d576000830184610d33565b92915050565b600080fd5b600080fd5b7f4e487b7100000000000000000000000000000000000000000000000000000000600052604160045260246000fd5b610d9f82610beb565b810181811067ffffffffffffffff82111715610dbe57610dbd610d67565b5b80604052505050565b6000610dd1610b2e565b9050610ddd8282610d96565b919050565b600067ffffffffffffffff821115610dfd57610dfc610d67565b5b610e0682610beb565b9050602081019050919050565b82818337600083830152505050565b6000610e35610e3084610de2565b610dc7565b905082815260208101848484011115610e5157610e50610d62565b5b610e5c848285610e13565b509392505050565b600082601f830112610e7957610e78610d5d565b5b8135610e89848260208601610e22565b91505092915050565b60008060408385031215610ea957610ea8610b38565b5b600083013567ffffffffffffffff811115610ec757610ec6610b3d565b5b610ed385828601610e64565b925050602083013567ffffffffffffffff811115610ef457610ef3610b3d565b5b610f0085828601610e64565b9150509250929050565b610f1381610ca9565b82525050565b6000602082019050610f2e6000830184610f0a565b92915050565b6000602082019050610f496000830184610c35565b92915050565b7f50726f706f73616c20646f6573206e6f74206578697374000000000000000000600082015250565b6000610f85601783610bb0565b9150610f9082610f4f565b602082019050919050565b60006020820190508181036000830152610fb481610f78565b9050919050565b7f596f75206861766520616c726561647920766f746564206f6e2074686973207060008201527f726f706f73616c00000000000000000000000000000000000000000000000000602082015250565b6000611017602783610bb0565b915061102282610fbb565b604082019050919050565b600060208201905081810360008301526110468161100a565b9050919050565b7f4e487b7100000000000000000000000000000000000000000000000000000000600052603260045260246000fd5b7f4e487b7100000000000000000000000000000000000000000000000000000000600052601160045260246000fd5b60006110b682610b42565b91507fffffffffffffffffffffffffffffffffffffffffffffffffffffffffffffffff82036110e8576110e761107c565b5b600182019050919050565b60006040820190506111086000830185610c35565b6111156020830184610f0a565b9392505050565b7f4e487b7100000000000000000000000000000000000000000000000000000000600052602260045260246000fd5b6000600282049050600182168061116357607f821691505b6020821081036111765761117561111c565b5b50919050565b7f4f6e6c792074686520636f6e7472616374206f776e65722063616e2063616c6c60008201527f20746869732066756e6374696f6e000000000000000000000000000000000000602082015250565b60006111d8602e83610bb0565b91506111e38261117c565b604082019050919050565b60006020820190508181036000830152611207816111cb565b9050919050565b600061121982610b42565b915061122483610b42565b925082820390508181111561123c5761123b61107c565b5b92915050565b600061124d82610b42565b915061125883610b42565b92508282019050808211156112705761126f61107c565b5b92915050565b6000815490506112858161114b565b9050919050565b60008190508160005260206000209050919050565b60006020601f8301049050919050565b600082821b905092915050565b6000600883026112ee7fffffffffffffffffffffffffffffffffffffffffffffffffffffffffffffffff826112b1565b6112f886836112b1565b95508019841693508086168417925050509392505050565b6000819050919050565b600061133561133061132b84610b42565b611310565b610b42565b9050919050565b6000819050919050565b61134f8361131a565b61136361135b8261133c565b8484546112be565b825550505050565b600090565b61137861136b565b611383818484611346565b505050565b5b818110156113a75761139c600082611370565b600181019050611389565b5050565b601f8211156113ec576113bd8161128c565b6113c6846112a1565b810160208510156113d5578190505b6113e96113e1856112a1565b830182611388565b50505b505050565b600082821c905092915050565b600061140f600019846008026113f1565b1980831691505092915050565b600061142883836113fe565b9150826002028217905092915050565b81810361144657505061151e565b61144f82611276565b67ffffffffffffffff81111561146857611467610d67565b5b611472825461114b565b61147d8282856113ab565b6000601f8311600181146114ac576000841561149a578287015490505b6114a4858261141c565b865550611517565b601f1984166114ba8761128c565b96506114c58661128c565b60005b828110156114ed578489015482556001820191506001850194506020810190506114c8565b8683101561150a5784890154611506601f8916826113fe565b8355505b6001600288020188555050505b5050505050505b565b7f4e487b7100000000000000000000000000000000000000000000000000000000600052603160045260246000fd5b61155882610ba5565b67ffffffffffffffff81111561157157611570610d67565b5b61157b825461114b565b6115868282856113ab565b600060209050601f8311600181146115b957600084156115a7578287015190505b6115b1858261141c565b865550611619565b601f1984166115c78661128c565b60005b828110156115ef578489015182556001820191506020850194506020810190506115ca565b8683101561160c5784890151611608601f8916826113fe565b8355505b6001600288020188555050505b505050505050565b60006060820190506116366000830186610c35565b81810360208301526116488185610bfc565b9050818103604083015261165c8184610bfc565b905094935050505056fea2646970667358221220a9b076f39d50d5a77cae62df1a936922ad2bd19a19df6b654a800618faaef8e664736f6c63430008130033",
  "immutableReferences": {},
  "source": "pragma solidity ^0.8.0;\n\ncontract VotingSystem {\n    struct Proposal {\n        string title;\n        string description;\n        uint voteCount;\n    }\n\n    Proposal[] public proposals;\n\n    mapping(uint => mapping(address => bool)) public hasVoted;\n    address public owner;\n\n    event ProposalCreated(uint proposalIndex, string title, string description);\n    event ProposalRemoved(uint proposalIndex);\n    event Voted(uint proposalIndex, address voter);\n\n    modifier onlyOwner() {\n        require(\n            msg.sender == owner,\n            \"Only the contract owner can call this function\"\n        );\n        _;\n    }\n\n    modifier proposalExists(uint proposalIndex) {\n        require(proposalIndex < proposals.length, \"Proposal does not exist\");\n        _;\n    }\n\n    constructor() {\n        owner = msg.sender;\n    }\n\n    function createProposal(\n        string memory title,\n        string memory description\n    ) public onlyOwner {\n        proposals.push(\n            Proposal({title: title, description: description, voteCount: 0})\n        );\n        emit ProposalCreated(proposals.length - 1, title, description);\n    }\n\n    function removeProposal(\n        uint proposalIndex\n    ) public onlyOwner proposalExists(proposalIndex) {\n        emit ProposalRemoved(proposalIndex);\n\n        delete proposals[proposalIndex];\n\n        for (uint i = proposalIndex; i < proposals.length - 1; i++) {\n            proposals[i] = proposals[i + 1];\n        }\n\n        proposals.pop();\n    }\n\n    function vote(uint proposalIndex) public proposalExists(proposalIndex) {\n        require(\n            !hasVoted[proposalIndex][msg.sender],\n            \"You have already voted on this proposal\"\n        );\n        proposals[proposalIndex].voteCount++;\n        hasVoted[proposalIndex][msg.sender] = true;\n        emit Voted(proposalIndex, msg.sender);\n    }\n\n    function getProposal(\n        uint proposalIndex\n    )\n        public\n        view\n        proposalExists(proposalIndex)\n        returns (string memory title, string memory description, uint voteCount)\n    {\n        return (\n            proposals[proposalIndex].title,\n            proposals[proposalIndex].description,\n            proposals[proposalIndex].voteCount\n        );\n    }\n\n    function getProposalsCount() public view returns (uint) {\n        return proposals.length;\n    }\n}\n",
  "sourcePath": "/Users/zacharyraicik/Documents/personal/Decentralized-Voting-DApp/build/contracts/VotingSystem.sol",
  "compiler": {
    "name": "solc",
    "version": "0.8.19+commit.7dd6d404.Emscripten.clang"
  },
  "schemaVersion": "3.4.13",
  "updatedAt": "2023-05-20T17:18:04.582Z",
  "devdoc": {
    "kind": "dev",
    "methods": {},
    "version": 1
  },
  "userdoc": {
    "kind": "user",
    "methods": {},
    "version": 1
  }
}