{
  "contractName": "VotingSystem",
  "abi": [
    {
      "inputs": [],
      "stateMutability": "nonpayable",
      "type": "constructor"
    },
    {
      "anonymous": false,
      "inputs": [
        {
          "indexed": false,
          "internalType": "uint256",
          "name": "proposalIndex",
          "type": "uint256"
        },
        {
          "indexed": false,
          "internalType": "string",
          "name": "description",
          "type": "string"
        }
      ],
      "name": "ProposalCreated",
      "type": "event"
    },
    {
      "anonymous": false,
      "inputs": [
        {
          "indexed": false,
          "internalType": "uint256",
          "name": "proposalIndex",
          "type": "uint256"
        },
        {
          "indexed": false,
          "internalType": "address",
          "name": "voter",
          "type": "address"
        }
      ],
      "name": "Voted",
      "type": "event"
    },
    {
      "inputs": [
        {
          "internalType": "uint256",
          "name": "",
          "type": "uint256"
        },
        {
          "internalType": "address",
          "name": "",
          "type": "address"
        }
      ],
      "name": "hasVoted",
      "outputs": [
        {
          "internalType": "bool",
          "name": "",
          "type": "bool"
        }
      ],
      "stateMutability": "view",
      "type": "function",
      "constant": true
    },
    {
      "inputs": [],
      "name": "owner",
      "outputs": [
        {
          "internalType": "address",
          "name": "",
          "type": "address"
        }
      ],
      "stateMutability": "view",
      "type": "function",
      "constant": true
    },
    {
      "inputs": [
        {
          "internalType": "uint256",
          "name": "",
          "type": "uint256"
        }
      ],
      "name": "proposals",
      "outputs": [
        {
          "internalType": "string",
          "name": "description",
          "type": "string"
        },
        {
          "internalType": "uint256",
          "name": "voteCount",
          "type": "uint256"
        }
      ],
      "stateMutability": "view",
      "type": "function",
      "constant": true
    },
    {
      "inputs": [
        {
          "internalType": "string",
          "name": "description",
          "type": "string"
        }
      ],
      "name": "createProposal",
      "outputs": [],
      "stateMutability": "nonpayable",
      "type": "function"
    },
    {
      "inputs": [
        {
          "internalType": "uint256",
          "name": "proposalIndex",
          "type": "uint256"
        }
      ],
      "name": "vote",
      "outputs": [],
      "stateMutability": "nonpayable",
      "type": "function"
    },
    {
      "inputs": [
        {
          "internalType": "uint256",
          "name": "proposalIndex",
          "type": "uint256"
        }
      ],
      "name": "getProposal",
      "outputs": [
        {
          "internalType": "string",
          "name": "description",
          "type": "string"
        },
        {
          "internalType": "uint256",
          "name": "voteCount",
          "type": "uint256"
        }
      ],
      "stateMutability": "view",
      "type": "function",
      "constant": true
    },
    {
      "inputs": [],
      "name": "getProposalsCount",
      "outputs": [
        {
          "internalType": "uint256",
          "name": "",
          "type": "uint256"
        }
      ],
      "stateMutability": "view",
      "type": "function",
      "constant": true
    }
  ],
  "bytecode": "0x608060405234801561001057600080fd5b5033600260006101000a81548173ffffffffffffffffffffffffffffffffffffffff021916908373ffffffffffffffffffffffffffffffffffffffff16021790555061108c806100616000396000f3fe608060405234801561001057600080fd5b506004361061007d5760003560e01c806349c2a1a61161005b57806349c2a1a6146100ff5780638da5cb5b1461011b57806398e527d314610139578063c7f758a8146101575761007d565b80630121b93f14610082578063013cf08b1461009e57806343859632146100cf575b600080fd5b61009c60048036038101906100979190610722565b610188565b005b6100b860048036038101906100b39190610722565b61034e565b6040516100c69291906107ee565b60405180910390f35b6100e960048036038101906100e4919061087c565b61040a565b6040516100f691906108d7565b60405180910390f35b61011960048036038101906101149190610a27565b610439565b005b610123610579565b6040516101309190610a7f565b60405180910390f35b61014161059f565b60405161014e9190610a9a565b60405180910390f35b610171600480360381019061016c9190610722565b6105ab565b60405161017f9291906107ee565b60405180910390f35b8060008054905081106101d0576040517f08c379a00000000000000000000000000000000000000000000000000000000081526004016101c790610b01565b60405180910390fd5b6001600083815260200190815260200160002060003373ffffffffffffffffffffffffffffffffffffffff1673ffffffffffffffffffffffffffffffffffffffff16815260200190815260200160002060009054906101000a900460ff161561026e576040517f08c379a000000000000000000000000000000000000000000000000000000000815260040161026590610b93565b60405180910390fd5b6000828154811061028257610281610bb3565b5b906000526020600020906002020160010160008154809291906102a490610c11565b9190505550600180600084815260200190815260200160002060003373ffffffffffffffffffffffffffffffffffffffff1673ffffffffffffffffffffffffffffffffffffffff16815260200190815260200160002060006101000a81548160ff0219169083151502179055507f030b0f8dcd86a031eddb071f91882edeac8173663ba775713b677b42b51be44b8233604051610342929190610c59565b60405180910390a15050565b6000818154811061035e57600080fd5b906000526020600020906002020160009150905080600001805461038190610cb1565b80601f01602080910402602001604051908101604052809291908181526020018280546103ad90610cb1565b80156103fa5780601f106103cf576101008083540402835291602001916103fa565b820191906000526020600020905b8154815290600101906020018083116103dd57829003601f168201915b5050505050908060010154905082565b60016020528160005260406000206020528060005260406000206000915091509054906101000a900460ff1681565b600260009054906101000a900473ffffffffffffffffffffffffffffffffffffffff1673ffffffffffffffffffffffffffffffffffffffff163373ffffffffffffffffffffffffffffffffffffffff16146104c9576040517f08c379a00000000000000000000000000000000000000000000000000000000081526004016104c090610d54565b60405180910390fd5b6000604051806040016040528083815260200160008152509080600181540180825580915050600190039060005260206000209060020201600090919091909150600082015181600001908161051f9190610f20565b506020820151816001015550507f9c770c289ab5bf7e57cb1d23c8ceae993aea46eb64847072fd3d78ca60d3e432600160008054905061055f9190610ff2565b8260405161056e929190611026565b60405180910390a150565b600260009054906101000a900473ffffffffffffffffffffffffffffffffffffffff1681565b60008080549050905090565b606060008260008054905081106105f7576040517f08c379a00000000000000000000000000000000000000000000000000000000081526004016105ee90610b01565b60405180910390fd5b6000848154811061060b5761060a610bb3565b5b9060005260206000209060020201600001600085815481106106305761062f610bb3565b5b90600052602060002090600202016001015481805461064e90610cb1565b80601f016020809104026020016040519081016040528092919081815260200182805461067a90610cb1565b80156106c75780601f1061069c576101008083540402835291602001916106c7565b820191906000526020600020905b8154815290600101906020018083116106aa57829003601f168201915b505050505091509250925050915091565b6000604051905090565b600080fd5b600080fd5b6000819050919050565b6106ff816106ec565b811461070a57600080fd5b50565b60008135905061071c816106f6565b92915050565b600060208284031215610738576107376106e2565b5b60006107468482850161070d565b91505092915050565b600081519050919050565b600082825260208201905092915050565b60005b8381101561078957808201518184015260208101905061076e565b60008484015250505050565b6000601f19601f8301169050919050565b60006107b18261074f565b6107bb818561075a565b93506107cb81856020860161076b565b6107d481610795565b840191505092915050565b6107e8816106ec565b82525050565b6000604082019050818103600083015261080881856107a6565b905061081760208301846107df565b9392505050565b600073ffffffffffffffffffffffffffffffffffffffff82169050919050565b60006108498261081e565b9050919050565b6108598161083e565b811461086457600080fd5b50565b60008135905061087681610850565b92915050565b60008060408385031215610893576108926106e2565b5b60006108a18582860161070d565b92505060206108b285828601610867565b9150509250929050565b60008115159050919050565b6108d1816108bc565b82525050565b60006020820190506108ec60008301846108c8565b92915050565b600080fd5b600080fd5b7f4e487b7100000000000000000000000000000000000000000000000000000000600052604160045260246000fd5b61093482610795565b810181811067ffffffffffffffff82111715610953576109526108fc565b5b80604052505050565b60006109666106d8565b9050610972828261092b565b919050565b600067ffffffffffffffff821115610992576109916108fc565b5b61099b82610795565b9050602081019050919050565b82818337600083830152505050565b60006109ca6109c584610977565b61095c565b9050828152602081018484840111156109e6576109e56108f7565b5b6109f18482856109a8565b509392505050565b600082601f830112610a0e57610a0d6108f2565b5b8135610a1e8482602086016109b7565b91505092915050565b600060208284031215610a3d57610a3c6106e2565b5b600082013567ffffffffffffffff811115610a5b57610a5a6106e7565b5b610a67848285016109f9565b91505092915050565b610a798161083e565b82525050565b6000602082019050610a946000830184610a70565b92915050565b6000602082019050610aaf60008301846107df565b92915050565b7f50726f706f73616c20646f6573206e6f74206578697374000000000000000000600082015250565b6000610aeb60178361075a565b9150610af682610ab5565b602082019050919050565b60006020820190508181036000830152610b1a81610ade565b9050919050565b7f596f75206861766520616c726561647920766f746564206f6e2074686973207060008201527f726f706f73616c00000000000000000000000000000000000000000000000000602082015250565b6000610b7d60278361075a565b9150610b8882610b21565b604082019050919050565b60006020820190508181036000830152610bac81610b70565b9050919050565b7f4e487b7100000000000000000000000000000000000000000000000000000000600052603260045260246000fd5b7f4e487b7100000000000000000000000000000000000000000000000000000000600052601160045260246000fd5b6000610c1c826106ec565b91507fffffffffffffffffffffffffffffffffffffffffffffffffffffffffffffffff8203610c4e57610c4d610be2565b5b600182019050919050565b6000604082019050610c6e60008301856107df565b610c7b6020830184610a70565b9392505050565b7f4e487b7100000000000000000000000000000000000000000000000000000000600052602260045260246000fd5b60006002820490506001821680610cc957607f821691505b602082108103610cdc57610cdb610c82565b5b50919050565b7f4f6e6c792074686520636f6e7472616374206f776e65722063616e2063616c6c60008201527f20746869732066756e6374696f6e000000000000000000000000000000000000602082015250565b6000610d3e602e8361075a565b9150610d4982610ce2565b604082019050919050565b60006020820190508181036000830152610d6d81610d31565b9050919050565b60008190508160005260206000209050919050565b60006020601f8301049050919050565b600082821b905092915050565b600060088302610dd67fffffffffffffffffffffffffffffffffffffffffffffffffffffffffffffffff82610d99565b610de08683610d99565b95508019841693508086168417925050509392505050565b6000819050919050565b6000610e1d610e18610e13846106ec565b610df8565b6106ec565b9050919050565b6000819050919050565b610e3783610e02565b610e4b610e4382610e24565b848454610da6565b825550505050565b600090565b610e60610e53565b610e6b818484610e2e565b505050565b5b81811015610e8f57610e84600082610e58565b600181019050610e71565b5050565b601f821115610ed457610ea581610d74565b610eae84610d89565b81016020851015610ebd578190505b610ed1610ec985610d89565b830182610e70565b50505b505050565b600082821c905092915050565b6000610ef760001984600802610ed9565b1980831691505092915050565b6000610f108383610ee6565b9150826002028217905092915050565b610f298261074f565b67ffffffffffffffff811115610f4257610f416108fc565b5b610f4c8254610cb1565b610f57828285610e93565b600060209050601f831160018114610f8a5760008415610f78578287015190505b610f828582610f04565b865550610fea565b601f198416610f9886610d74565b60005b82811015610fc057848901518255600182019150602085019450602081019050610f9b565b86831015610fdd5784890151610fd9601f891682610ee6565b8355505b6001600288020188555050505b505050505050565b6000610ffd826106ec565b9150611008836106ec565b92508282039050818111156110205761101f610be2565b5b92915050565b600060408201905061103b60008301856107df565b818103602083015261104d81846107a6565b9050939250505056fea264697066735822122005fd6ad9917cfa8addd673542c6414ee98335a0a085dd31936ad1c2ca32ddc9464736f6c63430008130033",
  "immutableReferences": {},
  "source": "pragma solidity ^0.8.0;\n\ncontract VotingSystem {\n    struct Proposal {\n        string description;\n        uint voteCount;\n    }\n\n    Proposal[] public proposals;\n\n    mapping(uint => mapping(address => bool)) public hasVoted;\n    address public owner;\n\n    event ProposalCreated(uint proposalIndex, string description);\n    event Voted(uint proposalIndex, address voter);\n\n    modifier onlyOwner() {\n        require(\n            msg.sender == owner,\n            \"Only the contract owner can call this function\"\n        );\n        _;\n    }\n\n    modifier proposalExists(uint proposalIndex) {\n        require(proposalIndex < proposals.length, \"Proposal does not exist\");\n        _;\n    }\n\n    constructor() {\n        owner = msg.sender;\n    }\n\n    function createProposal(string memory description) public onlyOwner {\n        proposals.push(Proposal({description: description, voteCount: 0}));\n        emit ProposalCreated(proposals.length - 1, description);\n    }\n\n    function vote(uint proposalIndex) public proposalExists(proposalIndex) {\n        require(\n            !hasVoted[proposalIndex][msg.sender],\n            \"You have already voted on this proposal\"\n        );\n        proposals[proposalIndex].voteCount++;\n        hasVoted[proposalIndex][msg.sender] = true;\n        emit Voted(proposalIndex, msg.sender);\n    }\n\n    function getProposal(\n        uint proposalIndex\n    )\n        public\n        view\n        proposalExists(proposalIndex)\n        returns (string memory description, uint voteCount)\n    {\n        return (\n            proposals[proposalIndex].description,\n            proposals[proposalIndex].voteCount\n        );\n    }\n\n    function getProposalsCount() public view returns (uint) {\n        return proposals.length;\n    }\n}\n",
  "sourcePath": "/Users/zacharyraicik/Documents/personal/Decentralized-Voting-DApp/Decentralized-Voting-DApp/contracts/VotingSystem.sol",
  "compiler": {
    "name": "solc",
    "version": "0.8.19+commit.7dd6d404.Emscripten.clang"
  },
  "schemaVersion": "3.4.13",
  "updatedAt": "2023-05-19T04:50:10.105Z",
  "networkType": "ethereum",
  "devdoc": {
    "kind": "dev",
    "methods": {},
    "version": 1
  },
  "userdoc": {
    "kind": "user",
    "methods": {},
    "version": 1
  }
}